:020000040802F0
:10000000F8040024AD02020801320208F92F0208A8
:10001000FD310208B9030208CF43020800000000C6
:10002000000000000000000000000000D1340208C1
:10003000BD0302080000000005320208D3340208A4
:10004000C7020208C7020208C7020208C702020864
:10005000C7020208C7020208C7020208C702020854
:10006000C7020208C7020208C7020208C702020844
:10007000C7020208C7020208C7020208C702020834
:10008000C7020208C7020208C7020208C702020824
:10009000C7020208C7020208C7020208C702020814
:1000A000C7020208C7020208C7020208C702020804
:1000B000C7020208C7020208C7020208C7020208F4
:1000C000C7020208C7020208C7020208C7020208E4
:1000D000C7020208C7020208C7020208C7020208D4
:1000E000C7020208C702020800000000C702020897
:1000F000C7020208C7020208C7020208C7020208B4
:10010000C7020208C7020208C7020208C7020208A3
:10011000C7020208C7020208C7020208C702020893
:10012000C7020208C7020208C7020208C702020883
:10013000C7020208C7020208C7020208C702020873
:1001400000000000000000000000000000000000AF
:10015000C7020208C7020208C7020208C702020853
:10016000C7020208C7020208C7020208C702020843
:10017000C7020208C7020208C70202080000000006
:10018000C7020208C7020208C7020208C702020823
:10019000C7020208C7020208C7020208C702020813
:1001A000C7020208C7020208C7020208C702020803
:1001B000C7020208C7020208C7020208C7020208F3
:1001C000C7020208C7020208C7020208C7020208E3
:1001D000C7020208C7020208C7020208C7020208D3
:1001E000C7020208C7020208C7020208C7020208C3
:1001F000C7020208C7020208C7020208C7020208B3
:10020000C7020208C7020208C7020208C7020208A2
:10021000C7020208C7020208C7020208C702020892
:10022000C7020208C7020208C70202080000000055
:10023000C7020208C702020800000000C702020845
:10024000C7020208C7020208C7020208C702020862
:10025000C7020208C7020208C7020208C702020852
:10026000C7020208C7020208C7020208C702020842
:10027000C7020208C7020208C70202080000000005
:10028000C7020208C7020208C702020800000000F5
:1002900000000000C7020208DFF80CD000F07AF876
:1002A0000048004779440208F804002406488047C3
:1002B00006480047FEE7FEE7FEE7FEE7FEE7FEE74B
:1002C000FEE7FEE7FEE7FEE7AD3502089902020809
:1002D0002DE9F05F0546002092469B46884606467B
:1002E000814640241BE0284641464746224600F00E
:1002F00041F853465A46C01A914110D31146184648
:10030000224600F028F82D1A67EB01084F462246D6
:100310000120002100F01FF817EB00094E41201EBC
:10032000A4F10104DFDC484631462A464346BDE8D5
:10033000F09FD2B201E000F8012B491EFBD27047BA
:100340000022F6E710B513460A4604461946FFF7A1
:10035000F0FF204610BD202A04DB203A00FA02F10B
:10036000002070479140C2F1200320FA03F31943A3
:1003700090407047202A04DB203A21FA02F0002145
:10038000704721FA02F3D040C2F1200291400843A5
:1003900019467047064C074D06E0E06840F001033F
:1003A00094E8070098471034AC42F6D3FFF778FF83
:1003B000584502087845020800BFFEE77047000074
:1003C00002A004F007F872B600BFFEE76920616D75
:1003D0002066616C6C0D0A00F8B502460B460021E0
:1003E0006F4DD7E001278F401E6806EA0704002CF6
:1003F00072D01E7906F00306012E04D01E7906F095
:100400000306022E13D190684F000326BE40B0436E
:100410004F00DE68BE4030439060506801268E4039
:10042000B0431E79C6F300168E40304350601E79EB
:1004300006F00306032E09D0D0684F000326BE4005
:10044000B0434F009E68BE403043D0601E7906F036
:100450000306022E13D1CF0802F1200656F827001A
:100460004E07F70E0F26BE40B0434F07FF0E1E6922
:10047000BE403043CF0802F1200646F8270010683E
:100480004F000326BE40B0431E7906F003064F001E
:10049000BE40304310605E6806F44036002E78D0CF
:1004A00000BF404E366846F002063E4F3E603E4674
:1004B000366806F00206009600BF00BF3A4E8F086D
:1004C00056F827008E07370F0F26BE40B043374E31
:1004D000B24202D100262EE05BE0354EB24201D19D
:1004E000012628E0334EB24201D1022623E0324EEB
:1004F000B24201D103261EE0304EB24201D10426A1
:1005000019E02F4EB24201D1052614E02D4EB24221
:1005100001D106260FE02C4EB24201D107260AE097
:100520002A4EB24201D1082605E0294EB24201D13D
:10053000092600E00A268F073F0FBE4030431A4EBF
:100540008F0846F827004FF0B0463068A0435E6839
:1005500006F4801606B120434FF0B0463060706854
:10056000A0435E6806F4001606B120434FF0B04683
:1005700070606868A0435E6806F4003606B12043E8
:1005800068602868A0435E6806F4803606B12043A0
:100590002860491C1E68CE40002E7FF423AFF8BDB2
:1005A00080000058F4440258080400580000025823
:1005B0000004025800080258000C025800100258AB
:1005C0000014025800180258001C0258002002585B
:1005D000002402580AB1816101E00B048361704775
:1005E00001480068000C70470010005C014800687A
:1005F000704700000000002408B500BF09490968E1
:1006000041F00201074A11601146096801F0020138
:10061000009100BF00BF044909680143024A11600C
:1006200008BD0000F4440258040400580348006860
:100630000349097808440149086070470000002414
:100640000800002410B5032000F00CF901F01CFB99
:1006500010490968C1F303210F4A515C01F01F01E1
:1006600020FA01F40B48006800F00F001146085C06
:1006700000F01F0024FA00F00849086008480460F0
:100680000F2000F00FF808B1012010BD00F09AF81B
:100690000020FAE7184402584845020810000024D8
:1006A0000C00002470B504461148007808B90120F8
:1006B00070BD0F4800784FF47A71B1FBF0F00D492E
:1006C0000968B1FBF0F5284601F0F4FF08B10120FC
:1006D000EEE7102C07D200222146501E00F084F8CD
:1006E0000548046001E00120E2E70020E0E70000A7
:1006F000080000240C000024040000244178154A5E
:1007000011600178F9B1121D41681160017B090780
:10071000C27A41EA0261827A41EAC241427B41EAFD
:100720008241827B41EA4241C27B41EA0241427AF4
:1007300041EA0221027A41EA420102781143054A64
:100740000832116005E00021024A121D1160121DDD
:100750001160704798ED00E000BF00BF00BFBFF31D
:100760005F8F00BF00BF00BF0548006820F48030E5
:10077000034908600020024970310860704700009A
:1007800024ED00E040F001010D4A11600C49703980
:10079000096841F480310A4A703A116000BF00BF15
:1007A00000BFBFF34F8F00BF00BF00BF00BF00BF3F
:1007B00000BFBFF36F8F00BF00BF00BF70470000D6
:1007C00094ED00E008B500BF0648006840F0020064
:1007D000044908600846006800F00200009000BF6D
:1007E00000BF08BDF44402582DE9F05F80460D4675
:1007F000164603F0F7FD074639462A46334601F010
:100800000700C0F1070ABAF1040F02D94FF0040A39
:1008100001E0C0F1070AD14600F1040ABAF1070F5E
:1008200002D24FF0000A01E0A0F1030AD4464FF0D3
:10083000010A0AFA09FAAAF1010A0AEA020A0AFAFC
:100840000CFA4FF0010B0BFA0CFBABF1010B0BEAAE
:10085000030B4AEA0B042146404603F0CBFDBDE8FA
:10086000F09F000000BF00F00702064B19684FF62A
:10087000FF031940044B0B4343EA0221014B19606B
:1008800000BF70470CED00E00000FA0570B50446AB
:1008900015480068C0F3800048B91348006800F0AC
:1008A0000700A04201D0012070BD0020FCE70E48E7
:1008B000006820F0070020430B490860FFF796FE10
:1008C000054607E0FFF792FE401BB0F57A7F01D99D
:1008D0000120E9E7044808380068C0F340300028E8
:1008E000F0D00020E0E700000C48025810B501F0FD
:1008F00081F905490968C1F30211044A515C01F00C
:100900001F01C84010BD000020440258484502089D
:1009100070B50146844D2D6805F00303824D2D68A6
:10092000C5F30530804D2D1D2D68C5F300147E4D97
:1009300014352D68C5F3CC0515FB04F501EE105AEE
:10094000B8EE411AF0EE410A00286FD023B1012B16
:100950004ED0022B6BD16BE0734D283D2D68C5F353
:1009600040153DB3704D283D2D68C5F3C1066F4D50
:1009700025FA06F201EE102AF8EE411A01EE100AED
:10098000B8EE411A81EE812A9FED691AC0EE811AF4
:10099000654D10352D68C5F3080501EE105AB8EE07
:1009A000411A31EE811AF7EE001A31EE211A22EEC9
:1009B000010A1CE001EE100AB8EE411ADFED5D1AE3
:1009C00081EE812A9FED5A1AC0EE811A564D1035DC
:1009D0002D68C5F3080501EE105AB8EE411A31EE44
:1009E000811AF7EE001A31EE211A22EE010A5BE0BD
:1009F00001EE100AB8EE411ADFED4F1A81EE812A9E
:100A00009FED4B1AC0EE811A474D10352D68C5F386
:100A1000080501EE105AB8EE411A31EE811AF7EED0
:100A2000001A31EE211A22EE010A3DE077E01DE0C6
:100A300001EE100AB8EE411A9FED402AC2EE011AEB
:100A40009FED3B1A80EE812A374D10352D68C5F396
:100A5000080501EE105AB8EE411A32EE011AB7EE4F
:100A6000002A31EE021A21EE810A1DE001EE100A81
:100A7000B8EE411ADFED301A81EE812A9FED2C1A73
:100A8000C0EE811A284D10352D68C5F3080501EE1A
:100A9000105AB8EE411A31EE811AF7EE001A31EE13
:100AA000211A22EE010A00BF00BF1F4D10352D682C
:100AB000C5F3462501EE105AB8EE411AF7EE001ABA
:100AC00031EE211AC0EE011ABCEEE11A81ED001AD6
:100AD000154D10352D68C5F3064501EE105AB8EED8
:100AE000411AF7EE001A31EE211AC0EE011ABCEEDF
:100AF000E11A81ED011A0C4D10352D68C5F306651C
:100B000001EE105AB8EE411AF7EE001A31EE211A32
:100B1000C0EE011ABCEEE11A81ED021A03E00025D5
:100B20000D604D608D6070BD284402580090D00368
:100B3000000000460024744C0024744A20BCBE4BC4
:100B400070B50146844D2D6805F00303824D2D6874
:100B5000C5F30550804D2D1D2D68C5F300247E4D35
:100B60001C352D68C5F3CC0515FB04F501EE105AB4
:100B7000B8EE411AF0EE410A00286FD023B1012BE4
:100B80004ED0022B6BD16BE0734D283D2D68C5F321
:100B900040153DB3704D283D2D68C5F3C1066F4D1E
:100BA00025FA06F201EE102AF8EE411A01EE100ABB
:100BB000B8EE411A81EE812A9FED691AC0EE811AC2
:100BC000654D18352D68C5F3080501EE105AB8EECD
:100BD000411A31EE811AF7EE001A31EE211A22EE97
:100BE000010A1CE001EE100AB8EE411ADFED5D1AB1
:100BF00081EE812A9FED5A1AC0EE811A564D1835A2
:100C00002D68C5F3080501EE105AB8EE411A31EE11
:100C1000811AF7EE001A31EE211A22EE010A5BE08A
:100C200001EE100AB8EE411ADFED4F1A81EE812A6B
:100C30009FED4B1AC0EE811A474D18352D68C5F34C
:100C4000080501EE105AB8EE411A31EE811AF7EE9E
:100C5000001A31EE211A22EE010A3DE077E01DE094
:100C600001EE100AB8EE411A9FED402AC2EE011AB9
:100C70009FED3B1A80EE812A374D18352D68C5F35C
:100C8000080501EE105AB8EE411A32EE011AB7EE1D
:100C9000002A31EE021A21EE810A1DE001EE100A4F
:100CA000B8EE411ADFED301A81EE812A9FED2C1A41
:100CB000C0EE811A284D18352D68C5F3080501EEE0
:100CC000105AB8EE411A31EE811AF7EE001A31EEE1
:100CD000211A22EE010A00BF00BF1F4D18352D68F2
:100CE000C5F3462501EE105AB8EE411AF7EE001A88
:100CF00031EE211AC0EE011ABCEEE11A81ED001AA4
:100D0000154D18352D68C5F3064501EE105AB8EE9D
:100D1000411AF7EE001A31EE211AC0EE011ABCEEAC
:100D2000E11A81ED011A0C4D18352D68C5F30665E1
:100D300001EE105AB8EE411AF7EE001A31EE211A00
:100D4000C0EE011ABCEEE11A81ED021A03E00025A3
:100D50000D604D608D6070BD284402580090D00336
:100D6000000000460024744C0024744A20BCBE4B92
:100D70002DE9F04104460025A846206800F00060F7
:100D8000B0F1006F30D1606E48B1B0F5801F0DD06A
:100D9000B0F5001F10D0B0F5401F15D113E0F94891
:100DA000006840F40030F74908600FE00221201D80
:100DB00002F02AFA054609E0022104F1240002F0BB
:100DC000D5FA054602E001E0012500BF00BF55B994
:100DD000EC482430006820F44010616E0843E94973
:100DE0002431086000E0A846208800F48070B0F547
:100DF000807F2DD1606D05281AD2DFE800F0030A4C
:100E000010171800DF48006840F40030DD49086022
:100E100010E00021201D02F0F7F905460AE000214C
:100E200004F1240002F0A2FA054603E002E001E02A
:100E3000012500BF00BF55B9D2482430006820F01A
:100E40000700616D0843CF492431086000E0A846DF
:100E5000208800F40070B0F5007F33D1A06D8028A9
:100E600017D003DC40B140281CD10CE0C02817D0BB
:100E7000B0F5807F16D114E0C248006840F400301D
:100E8000C049086010E00021201D02F0BDF90546B0
:100E90000AE0002104F1240002F068FA054603E0AC
:100EA00002E001E0012500BF00BF55B9B54824307C
:100EB000006820F4E070A16D0843B2492431086055
:100EC00000E0A846208800F48060B0F5806F38D13B
:100ED000D4F8A400B0F5800F19D004DC50B1B0F5FF
:100EE000001F1DD10DE0B0F5C00F17D0B0F5000FF9
:100EF00016D114E0A348006840F40030A14908600E
:100F000010E00021201D02F07FF905460AE00021D3
:100F100004F1240002F02AFA054603E002E001E0B1
:100F2000012500BF00BF5DB996482C30006820F451
:100F30006000D4F8A410084392492C31086000E006
:100F4000A846208800F40060B0F5006F38D1D4F8CE
:100F5000A800B0F1007F19D004DC50B1B0F1807F5F
:100F60001DD10DE0B0F1407F17D0B0F1806F16D1E8
:100F700014E08448006840F400308249086010E0C2
:100F80000021201D02F040F905460AE0002104F18D
:100F9000240002F0EBF9054603E002E001E0012540
:100FA00000BF00BF5DB977482C30006820F0E060DA
:100FB000D4F8A810084373492C31086000E0A84613
:100FC000206800F00070B0F1007F27D1A06CA0B1C4
:100FD000102804D0202809D030280FD10CE069480F
:100FE000006840F400306749086009E00221201DD4
:100FF00002F00AF9054603E002E001E0012500BF26
:1010000000BF55B95F482030006820F03000A16C67
:1010100008435C492031086000E0A846208800F4BD
:101020008050B0F5805F36D1E06DB0F5005F19D02B
:1010300004DC50B1B0F5805F1DD10DE0B0F5405F2C
:1010400017D0B0F5804F16D114E04E48006840F438
:1010500000304C49086010E00021201D02F0D4F857
:1010600005460AE0002104F1240002F07FF905465C
:1010700003E002E001E0012500BF00BF55B941488F
:101080002430006820F4E040E16D08433D492431FC
:10109000086000E0A846208800F40050B0F5005F2A
:1010A00034D1206EB0F5403F1DD007DC68B1B0F5FB
:1010B000803F0BD0B0F5003F18D10DE0B0F5802F88
:1010C00012D0B0F5A02F11D10FE011E00121201DA9
:1010D00002F09AF805460BE0012104F1240002F029
:1010E00045F9054604E003E002E001E0012500BF08
:1010F00000BF55B923482430006820F4E020216E59
:10110000084320492431086000E0A846208800F404
:101110008040B0F5804F38D1D4F8AC00B0F1405FDA
:101120001DD007DC68B1B0F1805F0BD0B0F1005F7B
:1011300018D10DE0B0F1804F12D0B0F1A04F11D115
:101140000FE011E00121201D02F05EF805460BE0E2
:10115000012104F1240002F009F9054604E003E04E
:1011600002E001E0012500BF00BF6DB905482C3049
:10117000006820F0E040D4F8AC10084301492C315D
:10118000086002E02C440258A846208800F4004081
:10119000B0F5004F26D1E06E98B1B0F1805F03D07A
:1011A000B0F1005F0ED106E0F948006840F400306D
:1011B000F749086008E00121201D02F025F80546E6
:1011C00002E001E0012500BF00BF55B9F04824301E
:1011D000006820F04050E16E0843ED49243108607A
:1011E00000E0A846206800F08070B0F1807F27D131
:1011F000606CA0B1012804D0022809D003280FD1C7
:101200000CE0E348006840F40030E149086009E080
:101210000221201D01F0F8FF054603E002E001E095
:10122000012500BF00BF55B9D9482030006820F023
:101230000300616C0843D6492031086000E0A846ED
:10124000206800F48000B0F5800F7DD1D14800689F
:1012500040F48070CF490860FFF7C8F9064606E001
:10126000FFF7C4F9801B642801D9032505E0C948AC
:10127000006800F480700028F2D000BF85BBC4482D
:101280004430006800F44070B4F8B01001F44071CC
:10129000884213D0BE484430006820F44077BC48F0
:1012A0004430006840F48030B94944310860084651
:1012B000006820F48030086008460760D4F8B00069
:1012C000B0F5807F15D1FFF791F9064609E0FFF7E9
:1012D0008DF9801B41F28831884202D9032507E04D
:1012E00038E0AB4844300068C0F340000028EED03E
:1012F00000BF55BB00BFB4F8B00000F44070B0F5BB
:10130000407F0ED1A2481C38006820F47C51A24ACC
:10131000D4F8B000104041EA10109D491C39086013
:1013200007E09B481C38006820F47C5098491C3921
:101330000860974844300068B4F8B010C1F30B015E
:1013400008439349443101E005E001E0086002E010
:10135000A84600E0A846207800F0010068B3A06F1E
:10136000182819D005DC48B1082808D0102816D153
:101370000BE0202811D0282811D10FE011E0012125
:10138000201D01F041FF05460BE0012104F124007E
:1013900001F0ECFF054604E003E002E001E0012576
:1013A00000BF00BF55B97A482830006820F03800E7
:1013B000A16F084376492831086000E0A8462078EC
:1013C00000F00200022828D1606F062815D2DFE85D
:1013D00000F003040A11121311E00121201D01F095
:1013E00013FF05460BE0012104F1240001F0BEFFCC
:1013F000054604E003E002E001E0012500BF00BF74
:1014000055B963482830006820F00700616F084331
:101410005F492831086000E0A846207800F0040009
:1014200004282AD1D4F89000062815D2DFE800F06D
:1014300003040A11121311E00121201D01F0E4FE42
:1014400005460BE0012104F1240001F08FFF054661
:1014500004E003E002E001E0012500BF00BF5DB948
:101460004B482C30006820F00700D4F89010084357
:1014700047492C31086000E0A846207800F02000A1
:10148000202836D1D4F88C00B0F1405F1DD007DCA5
:1014900068B1B0F1805F0BD0B0F1005F18D10DE002
:1014A000B0F1804F12D0B0F1A04F11D10FE011E098
:1014B0000021201D01F0A8FE05460BE0022104F1E9
:1014C000240001F053FF054604E003E002E001E0E0
:1014D000012500BF00BF5DB92D482830006820F00D
:1014E000E040D4F88C10084329492831086000E016
:1014F000A846207800F04000402836D1D4F8980063
:10150000B0F5406F1DD007DC68B1B0F5806F0BD02F
:10151000B0F5006F18D10DE0B0F5805F12D0B0F5D6
:10152000A05F11D10FE011E00021201D01F06CFE41
:1015300005460BE0022104F1240001F017FF0546E7
:1015400004E003E002E001E0012500BF00BF5DB957
:101550000F482C30006820F4E050D4F8981008436D
:101560000B492C31086000E0A846207800F080008C
:1015700080283AD1D4F89C00B0F5C04F23D00DDCC0
:1015800098B1B0F5005F11D0B0F5804F1ED113E0D7
:101590002C44025800480258FFFCFF0FB0F5004FE2
:1015A00012D0B0F5204F11D10FE011E00021201D25
:1015B00001F02AFE05460BE0022104F1240001F0AF
:1015C000D5FE054604E003E002E001E0012500BF8E
:1015D00000BF4DB9BE48006820F46040D4F89C10AC
:1015E0000843BB49086000E0A846207800F00800E6
:1015F000082817D1D4F88000B0F5805F07D1022108
:1016000004F1240001F0B2FE08B14FF00108B04827
:10161000001F006820F44050D4F880100843AC4903
:10162000091F0860207800F01000102815D1D4F8A8
:101630009400B0F5807F07D1022104F1240001F06D
:1016400095FE08B14FF00108A148006820F44070F1
:10165000D4F8941008439E490860206800F40020E4
:10166000B0F5002F26D1D4F8A00030B1B0F5803FFE
:1016700009D0B0F5003F0ED10CE00021201D01F093
:10168000C3FD054609E0022104F1240001F06EFECD
:10169000054602E001E0012500BF00BF4DB98C48BE
:1016A000006820F44030D4F8A0100843884908604E
:1016B00000E0A846206800F48020B0F5802F2DD1EE
:1016C000D4F88400B0F5801F06D0B0F5001F0CD010
:1016D000B0F5401F11D10FE07D482C38006840F470
:1016E00000307B492C39086009E0012104F1240015
:1016F00001F03CFE054602E001E0012500BF00BF0D
:101700005DB97348001F006820F44010D4F88410BD
:1017100008436F49091F086000E0A846206800F4EC
:101720008030B0F5803F24D1E06C18B1B0F5803F37
:101730000FD108E066482C38006840F40030644956
:101740002C39086007E00221201D01F05DFD0546EF
:1017500001E0012500BF00BF55B95D480C380068A5
:1017600020F48030E16C084359490C39086000E0EE
:10177000A846206800F00050B0F1005F07D10221B8
:1017800004F1240001F0F2FD08B14FF001082068D7
:1017900000F40030B0F5003F27D1E06FA0B1B0F504
:1017A000807F06D0B0F5007F0CD0B0F5407F0CD123
:1017B00009E047482C38006840F4003044492C398F
:1017C000086004E003E002E001E0012500BF00BF83
:1017D00055B93F48001F006820F44070E16F08438E
:1017E0003B49091F086000E0A846206800F480100B
:1017F000B0F5801F09D136480838006820F0004055
:10180000216F0843324908390860206800F0805091
:10181000B0F1805F0AD12E484838006820F480403B
:10182000D4F8B41008432A4948390860206800F405
:101830000010B0F5001F09D125480838006820F0D5
:101840008070A16E0843224908390860206800F0C2
:101850008040B0F1804F11D100BF1D48483800686A
:1018600020F400401A494839086008460068D4F856
:10187000B810084316494839086000BF206800F0D6
:101880000040B0F1004F09D111480C38006820F039
:101890004050216D08430E490C390860206800F45F
:1018A0000000B0F5000F0AD10948001F006820F4BD
:1018B0004000D4F8881008430549091F0860B8F1B2
:1018C000000F02D10020BDE8F0810120FBE70000FD
:1018D000584402582DE9F04104460D4614B9012040
:1018E000BDE8F081BD48006800F00F00A8420ED2AC
:1018F000BA48006820F00F002843B849086008463D
:10190000006800F00F00A84201D00120E8E720782D
:1019100000F0040004280ED1B1492069096801F0E3
:101920007001884207D9AE48006820F07000216934
:101930000843AB490860207800F00800082811D15E
:10194000A749091D6069096801F07001884209D939
:10195000A348001D006820F0700061690843A04999
:10196000091D0860207800F01000102811D19C4952
:10197000091DA069096801F4E061884209D9984805
:10198000001D006820F4E060A16908439449091D26
:101990000860207800F02000202811D190490831FB
:1019A000E069096801F07001884209D98C48083063
:1019B000006820F07000E169084389490831086037
:1019C000207800F0020002280ED18549E0680968FD
:1019D00001F00F01884207D98148006820F00F000C
:1019E000E16808437E490860207800F00100002883
:1019F00050D07B48006820F47060A16808437849A3
:101A000008606068022807D1754818380068C0F37C
:101A10004040F8B9012063E76068032807D17048A7
:101A200018380068C0F34060A0B9012058E760682A
:101A3000012807D16A4818380068C0F3002048B967
:101A400001204DE7664818380068C0F3800008B9E7
:101A5000012045E762480838006820F00700616807
:101A600008435F4908390860FEF7C0FD064608E0F4
:101A7000FEF7BCFD801B41F28831884201D903206A
:101A80002EE757480838006800F038006168B0EB6E
:101A9000C10FEDD1207800F0020002280ED150498C
:101AA000E068096801F00F01884207D24C480068DD
:101AB00020F00F00E1680843494908604748006882
:101AC00000F00F00A8420ED94448006820F00F0033
:101AD0002843424908600846006800F00F00A84209
:101AE00001D00120FCE6207800F0040004280ED18B
:101AF0003B492069096801F07001884207D23848E3
:101B0000006820F07000216908433549086020789A
:101B100000F00800082811D13149091D60690968E1
:101B200001F07001884209D22D48001D006820F0A4
:101B30007000616908432A49091D0860207800F097
:101B40001000102811D12649091DA069096801F467
:101B5000E061884209D22248001D006820F4E0605C
:101B6000A16908431E49091D0860207800F0200083
:101B7000202811D11A490831E069096801F0700183
:101B8000884209D216480830006820F07000E169E8
:101B9000084313490831086000F076F810490968D5
:101BA000C1F303210F4A515C01F01F0120FA01F734
:101BB0000B48006800F00F001146085C00F01F00A1
:101BC00027FA00F0084908600848076008480068DC
:101BD000FEF768FD8046404682E600000020005285
:101BE0001844025848450208100000240C00002444
:101BF0000400002410B500F047F80D490968C1F34E
:101C000003210C4A515C01F01F0120FA01F408483D
:101C1000006800F00F001146085C00F01F0024FA75
:101C200000F005490860054804600846006810BDDA
:101C30001844025848450208100000240C000024F3
:101C400000B5FFF7D7FF05490968C1F30211044A3F
:101C5000515C01F01F01C84000BD00001C44025847
:101C60004845020800B5FFF7C5FF05490968C1F3FB
:101C70000221044A515C01F01F01C84000BD000070
:101C80001C44025848450208F0B5824E366806F0FA
:101C9000380636B1082E15D0102E15D0182E7DD14D
:101CA00014E07C4E103E3668C6F3401646B1794EBD
:101CB000103E3668C6F3C107774E26FA07F000E0FB
:101CC0007548E5E07548E3E07548E1E0714E183687
:101CD000366806F003046F4E18363668C6F30511F1
:101CE0006C4E1C36366806F001056A4E243636689E
:101CF000C6F3CC0616FB05F601EE106AB8EE410AF3
:101D0000002971D024B1012C50D0022C6DD16DE08E
:101D1000604E103E3668C6F340163EB35D4E103E30
:101D20003668C6F3C1075C4E26FA07F301EE103A97
:101D3000F8EE411A01EE101AB8EE411A81EE812A2E
:101D40009FED581AC0EE011A524E20363668C6F37F
:101D5000080601EE106AB8EE411A31EE811AF7EE6C
:101D6000001A31EE211A62EE010A1EE001EE101A8D
:101D7000B8EE411ADFED4C1A81EE812A9FED491A27
:101D8000C0EE011A434E20363668C6F3080601EE4F
:101D9000106AB8EE411A31EE811A00E076E0F7EEF3
:101DA000001A31EE211A62EE010A5BE001EE101A10
:101DB000B8EE411A9FED3D2AC2EE011A9FED391A85
:101DC00080EE012A334E20363668C6F3080601EE4F
:101DD000106AB8EE411A32EE011AB7EE002A31EE5F
:101DE000021A61EE810A3DE04EE01DE001EE101A9C
:101DF000B8EE411ADFED2E1A81EE812A9FED291AE5
:101E0000C0EE011A234E20363668C6F3080601EEEE
:101E1000106AB8EE411A31EE811AF7EE001A31EE6F
:101E2000211A62EE010A1DE001EE101AB8EE411A05
:101E30009FED1E2AC2EE011A9FED1A1A80EE012AAA
:101E4000144E20363668C6F3080601EE106AB8EE66
:101E5000411A32EE011AB7EE002A31EE021A61EE93
:101E6000810A00BF00BF0B4E20363668C6F34626F7
:101E7000721C01EE102AB8EE411AC0EE811ABCEEB7
:101E8000E11A11EE100A00E0002001E0034800BF53
:101E900000BFF0BD104402580090D00300093D007F
:101EA00040787D01000000460024744C0024744AF0
:101EB00020BCBE4B2DE9F047044614B90120BDE813
:101EC000F087207800F00100002870D0FA48006800
:101ED00000F03808F8481830D0F80090B8F1100F2A
:101EE00006D0B8F1180F0FD109F0030002280BD16A
:101EF000F14810380068C0F3404000286AD060689C
:101F0000002867D10120DAE700BF6068B0F5803FA4
:101F100008D1E9481038006840F48030E6491039AB
:101F200008602EE0606868B9E3481038006820F463
:101F30008030E149103908600846006820F48020AC
:101F400008601EE06068B0F5A02F0DD1DA481038A7
:101F5000006840F48020D8491039086008460068BD
:101F600040F4803008600CE0D3481038006820F45A
:101F70008030D149103908600846006820F480207C
:101F8000086000BF606898B1FEF730FB054606E0C8
:101F9000FEF72CFB401B642801D903208FE7C648BD
:101FA00010380068C0F340400028F1D012E012E081
:101FB000FEF71CFB054606E0FEF718FB401B6428F5
:101FC00001D903207BE7BC4810380068C0F34040CB
:101FD0000028F1D100BF207800F00200022874D15F
:101FE000B548006800F03808B3481830D0F80090C1
:101FF000B8F1000F05D0B8F1180F56D109F0030061
:10200000D0BBAD4810380068C0F3800018B1E0685C
:1020100008B9012053E7A8481038006820F01900DB
:10202000E1680843A44910390860FEF7DFFA054665
:1020300006E0FEF7DBFA401B022801D903203EE749
:102040009D4810380068C0F380000028F1D000BF20
:10205000FEF7C6FA41F2030188421AD820694028E7
:102060000BD195480C38006820F47C3040F40030E7
:1020700091490C39086017E017E08F480C38006868
:1020800020F47C30216940EA01308B490C3908602A
:102090000AE089480C38006820F0FE40217C40EAC4
:1020A000016085490C39086066E0E06888B38248C1
:1020B0001038006820F01900E16808437E491039A3
:1020C0000860FEF793FA054607E056E0FEF78EFA41
:1020D000401B022801D90320F1E677481038006838
:1020E000C0F380000028F1D000BFFEF779FA41F27A
:1020F000030188421AD8206940280BD16E480C3859
:10210000006820F47C3040F400306B490C390860E2
:1021100017E017E068480C38006820F47C3021692B
:1021200040EA013064490C3908600AE062480C3822
:10213000006820F0FE40217C40EA01605E490C39D5
:10214000086019E05C481038006820F001005A4926
:1021500010390860FEF74AFA054606E0FEF746FA2F
:10216000401B022801D90320A9E653481038006813
:10217000C0F380000028F1D100BF207800F01000EB
:1021800010287CD14C48006800F038084A481830C4
:10219000D0F80090B8F1080F06D0B8F1180F3DD173
:1021A00009F00300012839D1434810380068C0F312
:1021B000002020B1E069802801D001207FE600BF27
:1021C000FEF70EFA41F2030188421AD8206A20284D
:1021D0000AD139480C38006820F0F84040F08040BF
:1021E00035490C39086018E033480C38006820F095
:1021F000F84094F8201040EA81602F490C390860BB
:102200000BE02D48001F006820F07C5094F820104F
:1022100040EA01602849091F086066E0E06978B378
:1022200025481038006840F08000234910390860C4
:10223000FEF7DCF9054606E0FEF7D8F9401B022858
:1022400001D903203BE61C4810380068C0F3002089
:102250000028F1D000BFFEF7C3F941F20301884224
:102260001CD8206A20280CD113480C38006820F0B4
:10227000F84040F0804010490C3908601AE035E021
:102280001CE00D480C38006820F0F84094F820104D
:1022900040EA816008490C3908600BE00648001FDD
:1022A000006820F07C5094F8201040EA0160024958
:1022B000091F086019E0000010440258FA4800683D
:1022C00020F08000F8490860FEF790F9054606E026
:1022D000FEF78CF9401B022801D90320EFE5F248F4
:1022E0000068C0F300200028F2D100BF207800F081
:1022F0000800082836D16069D0B1EB487430006816
:1023000040F00100E84974310860FEF76FF90546B6
:1023100006E0FEF76BF9401B022801D90320CEE549
:10232000E14874300068C0F340000028F1D019E0A3
:10233000DD487430006820F00100DB49743108602A
:10234000FEF754F9054606E0FEF750F9401B022857
:1023500001D90320B3E5D44874300068C0F34000CD
:102360000028F1D1207800F02000202830D1A06989
:10237000B8B1CD48006840F48050CB490860FEF702
:1023800035F9054606E0FEF731F9401B022801D970
:10239000032094E5C4480068C0F340300028F2D020
:1023A00016E0C148006820F48050BF490860FEF77D
:1023B0001DF9054606E0FEF719F9401B022801D970
:1023C00003207CE5B8480068C0F340300028F2D113
:1023D000207800F0040004287DD1B448006840F45F
:1023E0008070B2490860FEF701F9054606E0FEF785
:1023F000FDF8401B642801D9032060E5AB48006864
:1024000000F480700028F2D000BFA068012808D135
:10241000A5487030006840F00100A34970310860A1
:102420002DE0A06868B9A0487030006820F0010075
:102430009D49703108600846006820F0040008607B
:102440001DE0A06805280DD197487030006840F065
:1024500004009549703108600846006840F00100AA
:1024600008600CE090487030006820F001008E4950
:10247000703108600846006820F00400086000BF62
:10248000A068A0B1FEF7B2F8054608E0FEF7AEF886
:10249000401B41F28831884201D903200FE5824870
:1024A00070300068C0F340000028EFD013E0FEF762
:1024B0009DF8054608E0FEF799F8401B41F2883187
:1024C000884201D90320FAE4774870300068C0F3ED
:1024D00040000028EFD1606A00287DD0724810309B
:1024E000006800F03800182877D0606A022875D19B
:1024F0006D48006820F080706B490860FEF776F840
:10250000054606E0FEF772F8401B022801D90320B9
:10251000D5E465480068C0F340600028F2D100BFF0
:10252000D4E90A1041EA00105F492831096840F2F5
:10253000F332914308435C4928310860208E401EE5
:10254000C0F30800616B491E4FF47E4202EA41214C
:102550000843218F491ED20102EA014108433C2170
:10256000095D491E120202EA016108434E493031F9
:10257000086000BF081F006820F00100091F086004
:102580004948343000684FF6F8718843A16C40EA3E
:10259000C10045493431086043482C30006820F0C0
:1025A0000C00216C084340492C3108600846006843
:1025B00020F00200616C08433B492C31086008465A
:1025C000006840F4803008600846006840F400303D
:1025D00008600846006802E06AE038E01FE040F466
:1025E000802008600846006840F0010008602E481E
:1025F000006840F080702C490860FDF7F7FF054641
:1026000006E0FDF7F3FF401B022801D9032056E442
:1026100025480068C0F340600028F2D048E0224816
:10262000006820F0807020490860FDF7DFFF054654
:1026300006E0FDF7DBFF401B022801D903203EE442
:1026400019480068C0F340600028F2D130E0164815
:1026500028300768144830300668606A012821D0A5
:1026600007F00301A06A81421CD1C7F30511E06A9B
:10267000884217D1C6F30801206B401E814211D158
:10268000606B401EC6F3462188420BD1A06B401EF2
:10269000C6F30641884205D1E06B401EC6F30661D1
:1026A000884205D001200AE400440258004802583C
:1026B000002004E470B504462546681EB0F1807F12
:1026C00001D301200FE0681E4FF0E02148610F2187
:1026D0004FF0FF3001F08EFE00204FF0E0218861C6
:1026E00007200861002070BD30B502460B4600BFD0
:1026F00092F83C00012801D1022030BD012082F86F
:102700003C0000BF022082F83D001068416810685C
:102710008468214D1068A84203D0204D1068A8425B
:1027200003D121F470015868014321F07001186849
:10273000014310684160184D1068A8421BD0106812
:10274000B0F1804F17D0164D1068A84213D0154D28
:102750001068A8420FD0144D1068A8420BD00F4D3E
:102760001068A84207D0114D1068A84203D0104D40
:102770001068A84205D124F08004986804431068CA
:102780008460012082F83D0000BF002082F83C00F8
:1027900000BF00BFB1E7000000000140000401409D
:1027A0000004004000080040000C004000180040F9
:1027B0000040014010B504460CB9012010BD94F84A
:1027C0003D0028B9002084F83C00204600F02AF89B
:1027D000022084F83D00211D206800F065FF0120E3
:1027E00084F8480000BF84F83E0001213F200155D5
:1027F00040200155412001554220015543200155FB
:1028000000BF00BF012084F8440045200155462048
:1028100001554720015500BF012084F83D000020EC
:10282000CCE7000008B5094A016891420DD100BF0C
:102830000749096841F00401054A11601146096819
:1028400001F00401009100BF00BF08BD0008004076
:10285000E8440258014691F83D00012801D00120CA
:102860007047022081F83D001C4B086898421BD03D
:102870000868B0F1804F17D0194B0868984213D000
:10288000184B086898420FD0174B086898420BD035
:10289000164B0868984207D0154B0868984203D039
:1028A000144B0868984210D108688068124B00EAFF
:1028B0000302062A0FD0B2F5803F0CD008680068EA
:1028C00040F001000B68186005E00868006840F0FF
:1028D00001000B6818600020C2E700000000014002
:1028E0000004004000080040000C004000040140CB
:1028F0000018004000400140070001002DE9F041B0
:1029000004460D46002700BF94F83C00012802D180
:102910000220BDE8F081012084F83C0000BF0220C5
:1029200084F83D00206886684048064026F47F46CB
:10293000206886602868702826D00CDC00F00F0123
:10294000002966D10011072863D2DFE800F0555650
:1029500057584B374100B0F1101F52D009DCB0F589
:10296000805F10D0B0F5005F1BD0B0F5801F50D154
:1029700046E0A0F580102038002843D0102842D02F
:10298000202846D140E046E0D5E902136A68206875
:1029900000F001FF2068866846F0770620688660B0
:1029A00039E0D5E902136A68206800F0F4FE206877
:1029B000806840F48040216888602CE0EA6869689B
:1029C000206801F0B3F85021206800F0EFFE22E00B
:1029D000EA686968206801F0BCF86021206800F0AE
:1029E000E5FE18E0EA686968206801F09FF8402178
:1029F000206800F0DBFE0EE000BF00BF00BF00BF9C
:102A000000BF00BF00BF00BF2968206800F0CEFEF5
:102A100001E0012700BF00BF012084F83D0000BF96
:102A2000002084F83C0000BF384672E788FFCEFFE4
:102A300010B586B00446142101A8FDF781FC1249A7
:102A4000206888421DD100BF1048006840F0020095
:102A50000E4908600846006800F00200009000BFC0
:102A600000BF8020019002200290002003900220ED
:102A70000490059001A90648FDF7AEFC2020FDF763
:102A8000BBFD06B010BD000000080040E044025845
:102A9000000402582DE9F04104460D461646002771
:102AA00000BF94F83C00012802D10220BDE8F0816B
:102AB000012084F83C0000BF0C2E51D005DC4EB143
:102AC000042E1ED0082E7AD133E0102E60D0142EA2
:102AD000F9D175E02946206800F074FE206880690D
:102AE00040F00800216888612068806920F00400B7
:102AF00021688861206880692969084321688861A4
:102B000078E02946206800F0B3FE2068806940F430
:102B10000060216888612068806920F480602168F5
:102B2000886120688069296940EA012021688861FC
:102B300060E02946206800F0F5FE2068C06940F09A
:102B400008002168C8612068C06920F0040021687D
:102B5000C8612068C069296908432168C86149E0E3
:102B60002946206800F038FF2068C06940F4006002
:102B70002168C8612068C06920F480602168C8614C
:102B80002068C069296940EA01202168C86131E0F4
:102B90002946206800F05AFF2068406D40F0080088
:102BA000216848652068406D20F004002168486570
:102BB0002068406D29690843216848651AE017E0DC
:102BC0002946206800F07AFF2068406D40F40060DC
:102BD000216848652068406D20F480602168486560
:102BE0002068406D296940EA01202168486501E0BC
:102BF000012700BF00BF00BF002084F83C0000BFD9
:102C0000384653E710B504460CB9012010BD94F8BE
:102C10003D0028B9002084F83C00204600F029F847
:102C2000022084F83D00211D206800F03DFD0120B8
:102C300084F8480000BF84F83E0001213F20015580
:102C400040200155412001554220015543200155A6
:102C500000BF00BF012084F84400452001554620F4
:102C600001554720015500BF012084F83D00002098
:102C7000CCE7704770B504460D4615B994F83E0090
:102C800015E0042D02D13F20005D10E0082D02D197
:102C90004020005D0BE00C2D02D14120005D06E0DC
:102CA000102D02D14220005D01E04320005D01288B
:102CB00001D0012070BD1DB9022084F83E001AE049
:102CC000042D03D102213F20015514E0082D03D12A
:102CD0000221402001550EE00C2D03D1022141209C
:102CE000015508E0102D03D102214220015502E0D8
:102CF00002214320015501222946206800F03AFDB7
:102D00002B49206888420FD02A49206888420BD07E
:102D100029492068884207D028492068884203D082
:102D200027492068884201D1012000E0002028B115
:102D30002068406C40F40040216848641C492068C9
:102D400088421BD02068B0F1804F17D01D49206801
:102D5000884213D01C49206888420FD01B49206844
:102D600088420BD013492068884207D01849206850
:102D7000884203D010492068884210D120688068BA
:102D8000144900EA0106062E0FD0B6F5803F0CD09C
:102D90002068006840F001002168086005E02068B4
:102DA000006840F0010021680860002082E7000010
:102DB0000000014000040140004001400044014087
:102DC000004801400004004000080040000C0040A2
:102DD0000018004007000100014600BF91F8800084
:102DE000012801D102207047012081F8800000BF36
:102DF0002420C1F88400086802680868006820F090
:102E000001000B68186022F0005200204866086834
:102E100002602020C1F8840000BF002081F88000FB
:102E200000BF00BFDFE770B504460D4600BF94F851
:102E30008000012801D1022070BD012084F88000AB
:102E400000BF2420C4F88400206806682068006859
:102E500020F00100216808602068806820F0606030
:102E6000284321688860204600F088FE20680660BC
:102E70002020C4F8840000BF002084F8800000BF38
:102E800000BFD9E770B504460D4600BF94F8800036
:102E9000012801D1022070BD012084F8800000BF0C
:102EA0002420C4F88400206806682068006820F0A8
:102EB0000100216808602068806820F06040284395
:102EC00021688860204600F059FE206806602020B6
:102ED000C4F8840000BF002084F8800000BF00BF59
:102EE000D9E710B504460CB9012010BDA06900B1A6
:102EF00000E000BFD4F8840028B9002084F88000E6
:102F0000204600F02BF82420C4F8840020680068D4
:102F100020F0010021680860204600F013FF01281E
:102F200000D1E2E7A06A10B1204600F053FE20680D
:102F3000406820F49040216848602068806820F054
:102F40002A00216888602068006840F0010021683C
:102F50000860204600F0BAFEC7E7000010B5B6B022
:102F60000446142131A8FDF7EBF9BC2102A8FDF7B6
:102F7000E7F91E492068884235D1012002900020DF
:102F8000209002A8FDF7F4FE08B1FDF719FA00BF82
:102F90001748006840F010001549086008460068AE
:102FA00000F01000019000BF00BF00BF10481038B3
:102FB000006840F001000E491039086008460068BA
:102FC00000F00100019000BF00BF4FF4C0603190DD
:102FD000022032900020339034900720359031A9A0
:102FE0000448FDF7F9F936B010BD000000100140AB
:102FF000F04402580000025800BFFEE71FB5002051
:103000000090019002900390FDF7A6FB01208DF83F
:10301000000000208DF8010001901F208DF80800AD
:1030200087208DF8090000208DF80A008DF80B002C
:1030300001208DF80C008DF80D0000208DF80E0099
:103040008DF80F006846FDF759FB0420FDF79AFB49
:103050001FBD000000B587B0142102A8FDF770F96C
:1030600000BF1D48006840F080001B49086008460A
:10307000006800F08000019000BF00BF00BF08465C
:10308000006840F0020008600846006800F0020096
:10309000019000BF00BF00BF0846006840F001007B
:1030A00008600846006800F00100019000BF00BF02
:1030B000002203210948FDF78DFA03200290012028
:1030C0000390022004900020059002A90348FDF718
:1030D00083F907B000BD0000E04402580004025824
:1030E00000B58FB000200B900C900D900E900890C2
:1030F00009900A901C2101A8FDF722F921482249D4
:1031000008600020486000211F48816044F61F616C
:10311000C1600021016180218161FFF74BFB08B193
:10312000FDF74EF94FF480500B900BA91648FFF7AE
:10313000E5FB08B1FDF744F91348FFF763FD08B15B
:10314000FDF73EF9002008900A9008A90E48FFF705
:10315000CBFA08B1FDF734F90C48019042F2107037
:1031600002900220039000200590042201A9064845
:10317000FFF790FC08B1FDF723F90348FFF758FC6F
:103180000FB000BD000800401800002460000100DE
:1031900010B51848184908604FF4165048600021CF
:1031A00015488160C16001610C214161002181618C
:1031B000C1610162416200200F4988620846FFF741
:1031C00090FE08B1FDF7FCF800210B48FFF75AFE0E
:1031D00008B1FDF7F5F800210748FFF724FE08B114
:1031E000FDF7EEF80448FFF7F7FD08B1FDF7E8F842
:1031F00010BD0000001001406400002400BFFEE785
:1032000000BFFEE7704700002DE9F04104460E467E
:1032100000275548006800F00300032802D1012070
:10322000BDE8F08150482838006820F080604E49A1
:1032300028390860FDF7DAF9054606E0FDF7D6F90A
:10324000401B022801D90320EAE7474828380068D4
:10325000C0F3C0600028F1D100BF4348006820F4EB
:103260007C30216840EA01303F490860A088401E58
:10327000C0F30800A168491E4FF47E4202EA4121D2
:103280000843A189491ED20102EA01410843217C79
:10329000491E120202EA01610843334910310860F5
:1032A00000BF3148001D006820F0C000616908437C
:1032B0002D49091D08600846006820F02000A1691A
:1032C00008432949091D08600846006820F01000DD
:1032D00008602548143000684FF6F8718843E169AA
:1032E00040EAC1002049143108601F48001D0068F1
:1032F00040F010001C49091D08602EB908460068FE
:1033000040F40020086012E0012E08D11648001D8C
:10331000006840F480101449091D086007E0124855
:10332000001D006840F400100F49091D08600E4898
:103330002838006840F080600B4928390860FDF7A4
:1033400055F9054606E0FDF751F9401B022801D961
:10335000032065E7044828380068C0F3C0600028EF
:10336000F1D038465CE70000284402582DE9F041CE
:1033700004460E4600275548006800F00300032865
:1033800002D10120BDE8F08150482838006820F0C3
:1033900080504E4928390860FDF728F9054606E0B7
:1033A000FDF724F9401B022801D90320EAE747482A
:1033B00028380068C0F340700028F1D100BF4348AE
:1033C000006820F07C70218840EA01503F49086085
:1033D000A088401EC0F30800A168491E4FF47E4239
:1033E00002EA41210843A189491ED20102EA0141B2
:1033F0000843217C491E120202EA01610843334955
:103400001831086000BF3148001D006820F440609A
:10341000616908432D49091D08600846006820F4C9
:103420000070A16908432949091D08600846006821
:1034300020F48070086025481C3000684FF6F87151
:103440008843E16940EAC10020491C3108601F48F7
:10345000001D006840F480701C49091D08602EB9E9
:103460000846006840F48000086012E0012E08D190
:103470001648001D006840F400001449091D08604A
:1034800007E01248001D006840F080700F49091DD8
:1034900008600E482838006840F080500B492839F1
:1034A0000860FDF7A3F8054606E0FDF79FF8401B0E
:1034B000022801D9032065E7044828380068C0F3D2
:1034C00040700028F1D038465CE7000028440258DC
:1034D000704710B5FDF7AAF810BD000000B59DB00B
:1034E0004C210AA8FCF72CFF202102A8FCF728FF9A
:1034F0000220FDF7CBF900BF0020019029480068A9
:1035000020F00100274908600846006800F001002B
:1035100001902548006840F440402349086008466F
:10352000006800F44040019000BF00BF00BF1E488B
:10353000006800F40050B0F5005FF8D101200A9057
:1035400000040B9002201390022114910521159183
:10355000A0211691022117911891199108211A9111
:1035600000211B911C910AA8FEF7A4FC08B1FCF7EE
:1035700027FF3F20029003200390002004900820A2
:103580000590402006900790000108904020099087
:10359000022102A8FEF79EF908B1FCF711FF1DB049
:1035A00000BD00002C040058184802583448006838
:1035B00040F47000324908603248006800F00F00A3
:1035C000072806D22F48006820F00F00C01D2D49A3
:1035D00008602D48006840F001002B490860002079
:1035E00029491031086028480068284908402649C0
:1035F00008602448006800F00F00072806D9214819
:10360000006820F00F00C01D1E49086000201E4900
:1036100018310860091D0860091D08601C481A4916
:10362000283108601B48091D08601B48091D0860F7
:103630000020091D08601848091D08600020091DA8
:1036400008601548091D08600020091D08600E4823
:10365000006820F480200C49086000200A4960318D
:1036600008600E4800686FF30F00B0F1005F02D2EF
:1036700001200B49086043F2D2000A4908607047F4
:1036800088ED00E000200052004402587FEDF6EA89
:10369000000202020000FF01800201010010005C34
:1036A000088100510040005210B50268294B984231
:1036B0000ED0B0F1804F0BD0274B984208D0274B4B
:1036C000984205D0264B984202D0264B984203D10F
:1036D00022F070024B681A431E4B984217D0B0F18B
:1036E000804F14D01C4B984211D01C4B98420ED0E6
:1036F0001B4B98420BD01B4B984208D01A4B984258
:1037000005D01A4B984202D0194B984203D122F4AB
:103710004072CB681A4322F080034C6943EA0402EA
:1037200002608B68C3620B6883620A4B98420BD0BD
:103730000C4B984208D00C4B984205D00B4B98424A
:1037400002D00B4B984201D10B6903630123436103
:1037500010BD0000000001400004004000080040CF
:10376000000C0040000401400040014000440140C2
:103770000048014030B501F01F05012404FA05F3AB
:10378000046A9C430462046A01F01F0502FA05F50D
:103790002C43046230BD30B50C46816821F47F4172
:1037A00042EA032525432943816030BD0A468168EA
:1037B000034B194042F00703194381607047000032
:1037C0008FFFCFFF30B5056A25F001050562026A5B
:1037D00043688469204D2C4024F003040D682C4379
:1037E00022F002028D682A431C4DA84200D10FE04E
:1037F0001B4DA84200D10BE01A4DA84200D107E0B2
:10380000194DA84200D103E0184DA84206D100BFCF
:1038100022F00802CD682A4322F004020F4DA8428C
:103820000BD00F4DA84208D00E4DA84205D00E4D2A
:10383000A84202D00D4DA84207D123F4807323F48F
:1038400000734D692B438D692B43436084614D6840
:103850004563026230BD00008FFFFEFF00000140A3
:103860000004014000400140004401400048014084
:1038700030B5056A25F010050562026A436884695F
:10388000224D2C4024F440740D6844EA052422F0B3
:1038900020028D6842EA05121D4DA84200D10FE0BA
:1038A0001C4DA84200D10BE01B4DA84200D100BF27
:1038B0001A4DA84200D100BF194DA84207D106E019
:1038C00022F08002CD6842EA051222F04002104D3B
:1038D000A8420BD00F4DA84208D00F4DA84205D0EA
:1038E0000E4DA84202D00E4DA84209D123F48063A8
:1038F00023F400634D6943EA85038D6943EA850338
:10390000436084614D688563026230BDFF8FFFFEB6
:10391000000001400004014000400140004401401B
:103920000048014030B5056A25F480750562026AD9
:103930004368C469224D2C4024F003040D682C43D5
:1039400022F400728D6842EA05221E4DA84200D181
:103950000FE01D4DA84200D10BE01C4DA84200D144
:1039600000BF1B4DA84200D100BF1A4DA84207D18D
:1039700006E022F40062CD6842EA052222F4806269
:10398000104DA8420BD0104DA84208D00F4DA842B0
:1039900005D00F4DA84202D00E4DA84209D123F404
:1039A000805323F400534D6943EA05138D6943EABC
:1039B00005134360C4614D68C563026230BD0000F9
:1039C0008FFFFEFF00000140000401400040014065
:1039D000004401400048014030B5056A25F4805597
:1039E0000562036A4468C269124D2A4022F440729B
:1039F0000D6842EA052223F400538D6843EA05333B
:103A00000D4DA8420BD00D4DA84208D00C4DA84238
:103A100005D00C4DA84202D00B4DA84204D124F48D
:103A200080444D6944EA85144460C2614D68056470
:103A3000036230BDFF8FFFFE000001400004014023
:103A400000400140004401400048014030B5056A93
:103A500025F480350562026A4368446D114D2C409F
:103A60000D682C4322F400320D8942EA05420E4DC6
:103A7000A8420BD00D4DA84208D00D4DA84205D04C
:103A80000C4DA84202D00C4DA84204D123F480333F
:103A90004D6943EA0523436044654D6885650262CC
:103AA00030BD00008FFFFEFF000001400004014018
:103AB00000400140004401400048014030B5056A23
:103AC00025F480150562026A4368446D114D2C404F
:103AD0000D6844EA052422F400120D8942EA0552D9
:103AE0000D4DA8420BD00D4DA84208D00C4DA84258
:103AF00005D00C4DA84202D00B4DA84204D123F4AE
:103B000080234D6943EA8523436044654D68C5655C
:103B1000026230BDFF8FFFFE000001400004014043
:103B200000400140004401400048014030B50B46D0
:103B30001446026A056A25F001050562816921F0D3
:103B4000F00141EA041122F00A021A438161026283
:103B500030BD30B50B461446056A25F010050562E8
:103B60008169026A21F4704141EA043122F0A00225
:103B700042EA03128161026230BD000070B5456EF9
:103B80002DB90125A0F86A50A0F868501CE0102358
:103B900010240568AD68C5F342610568AD686A0F19
:103BA0000A4DAD5C15FB04F5094EB65C95FBF6F5C8
:103BB000A0F86A50054D6D5C15FB03F5044E765C6C
:103BC00095FBF6F5A0F8685070BD00003845020876
:103BD0004045020890F8281001F0010139B1016850
:103BE000496821F40031C26A11430268516090F8BB
:103BF000281001F00201022907D10168496821F467
:103C00008031026B11430268516090F8281001F076
:103C10000401042907D10168496821F48021426B1D
:103C200011430268516090F8281001F0080108293A
:103C300007D10168496821F40041826B1143026891
:103C4000516090F8281001F01001102907D1016887
:103C5000896821F48051C26B11430268916090F829
:103C6000281001F02001202907D10168896821F47A
:103C70000051026C11430268916090F8281001F025
:103C80004001402913D10168496821F48011426C38
:103C9000114302685160416CB1F5801F07D1016882
:103CA000496821F4C001826C11430268516090F8A8
:103CB000281001F08001802907D10168496821F4AA
:103CC0000021C26C114302685160704738B5044648
:103CD0000020C4F88C00FCF789FC054620680068C9
:103CE00000F0080008280CD16FF07E402B4600221F
:103CF0004FF400110090204600F0EAFA08B10320CA
:103D000038BD2068006800F0040004280CD16FF072
:103D10007E402B4600224FF480010090204600F0A8
:103D2000D7FA08B10320EBE72020C4F88400C4F8D8
:103D300088000020E06600BF84F8800000BF00BF5C
:103D4000DEE700002DE9F04F89B00546002008901D
:103D5000F8492868884200D100E000BF2969A868B6
:103D6000084369690843E96940EA0108286800686E
:103D7000F149084040EA080029680860286840685E
:103D800020F44050E968084329684860D5F8188055
:103D9000E8492868884202D0286A40EA080828686A
:103DA0008068E649084040EA080029688860286879
:103DB000C06A20F00F00696A08432968C86200BF22
:103DC000DF492868884220D1DE48006800F03800CA
:103DD000182811D005DC48B1082809D0102811D1C5
:103DE00008E020280AD028280CD109E001240BE0A3
:103DF000042409E0082407E0102405E0202403E05F
:103E0000402401E0802400BFF8E0CF4928688842C0
:103E100019D1CC48006800F00700062810D2DFE86E
:103E200000F0030507090B0D00240BE0042409E052
:103E3000082407E0102405E0202403E0402401E0EA
:103E4000802400BFDAE0C1492868884219D1BD4802
:103E5000006800F00700062810D2DFE800F0030534
:103E600007090B0D00240BE0042409E0082407E0F7
:103E7000102405E0202403E0402401E0802400BF5A
:103E8000BCE0B3492868884219D1AE48006800F008
:103E90000700062810D2DFE800F0030507090B0D24
:103EA00000240BE0042409E0082407E0102405E0C6
:103EB000202403E0402401E0802400BF9EE0A549C7
:103EC0002868884219D19F48006800F0070006283A
:103ED00010D2DFE800F0030507090B0D00240BE00A
:103EE000042409E0082407E0102405E0202403E06E
:103EF000402401E0802400BF80E097492868884280
:103F000020D19048006800F03800182811D005DC56
:103F100048B1082809D0102811D108E020280AD07B
:103F200028280CD109E001240BE0042409E008242E
:103F300007E0102405E0202403E0402401E0802471
:103F400000BF5BE085492868884219D17D48006838
:103F500000F00700062810D2DFE800F0030507098B
:103F60000B0D00240BE0042409E0082407E01024D2
:103F700005E0202403E0402401E0802400BF3DE070
:103F800077492868884219D16E48006800F0070018
:103F9000062810D2DFE800F0030507090B0D002406
:103FA0000BE0042409E0082407E0102405E02024A5
:103FB00003E0402401E0802400BF1FE05D49286841
:103FC00088421AD15F48001D006800F007000628EB
:103FD00010D2DFE800F0030507090B0D02240BE007
:103FE000042409E0082407E0102405E0202403E06D
:103FF000402401E0802400BF00E0802400BF4D4940
:10400000286888427DD1102C1AD006DC022C09D0F9
:10401000042C0BD0082C29D10DE0202C21D0402CD1
:1040200024D120E0FCF762FC064623E005A8FCF75B
:104030006FFC069E1EE002A8FCF782FD039E19E0BD
:10404000404854380068C0F3401040B13D485438EF
:104050000068C0F3C101434820FA01F600E0414E78
:1040600008E0414E06E04FF4004603E00026012040
:10407000089000BF00BF002E10D03C49686A31F89C
:104080001000B6FBF0F9686800EB4000484503D823
:1040900068680003484502D20120089003E13349D3
:1040A000686A31F810C06246002330461946FCF7B2
:1040B0000FF94FF4807300228446ACFB030B01FB25
:1040C00003B10CFB021C69684908034659184CEB04
:1040D0000200CDE90010D5F804C06246002308466E
:1040E0000199FCF7F5F80746B7F5407F06D3B7F519
:1040F000801F03D22868C760D5E002E00120089045
:10410000D1E0E869B0F5004F7BD1082C39D005DC4F
:104110005CB1012C2CD0042C4CD12DE0102C35D0CE
:10412000202C42D0402C45D141E0FDF789FD0646C8
:1041300044E00000000C0058F369FFCFFFF4FF11CA
:104140000010014054440258004400400048004020
:10415000004C004000500040001401400078004036
:10416000007C00400090D00300093D00204502087B
:10417000FDF778FD064621E005A8FCF7C9FB069E81
:104180001CE002A8FCF7DCFC039E17E04C4800682A
:10419000C0F3401038B14A480068C0F3C101494833
:1041A00020FA01F600E0474E08E0474E06E04FF4E3
:1041B000004603E000260120089000BF00BFFEB1CA
:1041C0004249686A31F81000B6FBF0F040006968B7
:1041D00000EB5100B0FBF1F7102F0FD3B7F5803F84
:1041E0000CD24FF6F07007EA000AC7F342004AEA21
:1041F000000A2868C0F80CA055E002E001200890F1
:1042000051E0082C1AD005DC5CB1012C0DD0042C37
:104210002DD10EE0102C16D0202C23D0402C26D1EE
:1042200022E0FDF70DFD064625E0FDF71BFD0646E5
:1042300021E005A8FCF76CFB069E1CE002A8FCF739
:104240007FFC039E17E01E480068C0F3401038B1A1
:104250001B480068C0F3C1011A4820FA01F600E0CB
:10426000184E08E0184E06E04FF4004603E0002622
:104270000120089000BF00BFAEB11449686A31F850
:104280001000B6FBF0F0696800EB5100B0FBF1F7ED
:10429000102F06D3B7F5803F03D2B8B22968C860A3
:1042A00001E0012008900120A5F86A00A5F8680047
:1042B000002028676867089809B0BDE8F08F000003
:1042C000004402580090D00300093D002045020838
:1042D0002DE9F04104460D4617469846069E6AE0D1
:1042E000701C002867D0FCF781F9A0EB0800B042F1
:1042F00000D846BB00BF00BF216851E8001F21F471
:10430000D070226842E800010029F5D100BF00BF4B
:1043100000BF2168083151E8001F21F00100216829
:10432000083141E80002002AF3D100BF2020C4F880
:104330008400C4F8880000BF002084F8800000BF1B
:104340000320BDE8F0812068006800F0040088B315
:104350002068C069C0F3C02060B34FF400602168DA
:10436000086200BF00BF216851E8001F21F4D0702F
:10437000226842E800010029F5D100BF00BF00BF5C
:104380002168083151E8001F21F00100216808313F
:1043900041E80002002AF3D100BF202044F8840F36
:1043A0006060A060843C00BF002084F8800000BFF3
:1043B0000320C6E7FFE72068C0692840A84201D172
:1043C000012000E00020B8428AD00020B9E700BFF9
:1043D000FEE70000014A024900F02FB85D440208E0
:1043E0001400002402480068C0F302207047000057
:1043F0000CED00E010B5002804DB0A07130E054A97
:10440000135406E00A07140E034A00F00F031B1FA3
:10441000D45410BD00E400E018ED00E002E008C84C
:10442000121F08C1002AFAD170477047002001E02E
:1044300001C1121F002AFBD170472DE9F041164639
:104440000F460446002503E03946B047641C6D1C46
:1044500020780028F8D12846BDE8F08100BF054A41
:10446000D26902F04002002AF9D0C2B2014B9A622E
:104470007047000000100140144815490860FEF71D
:10448000BDFDFCF7DFF8FFF729F8FEF7E3FDFEF7C7
:104490007FFEFEF725FE0FA0FFF79CFF11A0FFF7A0
:1044A00099FF14A0FFF796FF15A0FFF793FF1A4896
:1044B000FEF7D0F9002201211848FCF78BF80421FF
:1044C0001548FEF7D7FB00BFFEE70000000002081A
:1044D00008ED00E068656C6C6F2073746D333248D2
:1044E000370D0A0049206C696B6520746869732177
:1044F000210D0A0053746172742050574D0D0A004B
:104500004920616D20696E20415050206D6F6465B7
:10451000202121210D0A0000180000240004025867
:10452000010002000400060008000A000C00100050
:10453000200040008000000101010103070100008C
:104540000804020408010101000000000102030444
:104550000102030406070809784502080000002448
:10456000180000001C4402089045020818000024AE
:10457000E00400002C4402080000000010000000CD
:10458000010000000090D0030090D0030000000064
:040000050802029952
:00000001FF
